{
  "_format": "hh-sol-artifact-1",
  "contractName": "GrievanceSystem",
  "sourceName": "contracts/GrievanceSystem.sol",
  "abi": [
    {
      "inputs": [],
      "stateMutability": "nonpayable",
      "type": "constructor"
    },
    {
      "anonymous": false,
      "inputs": [
        {
          "indexed": true,
          "internalType": "uint256",
          "name": "id",
          "type": "uint256"
        }
      ],
      "name": "GrievanceResolved",
      "type": "event"
    },
    {
      "anonymous": false,
      "inputs": [
        {
          "indexed": true,
          "internalType": "uint256",
          "name": "id",
          "type": "uint256"
        },
        {
          "indexed": false,
          "internalType": "string",
          "name": "status",
          "type": "string"
        }
      ],
      "name": "GrievanceStatusUpdated",
      "type": "event"
    },
    {
      "anonymous": false,
      "inputs": [
        {
          "indexed": true,
          "internalType": "uint256",
          "name": "id",
          "type": "uint256"
        },
        {
          "indexed": true,
          "internalType": "address",
          "name": "submitter",
          "type": "address"
        },
        {
          "indexed": false,
          "internalType": "string",
          "name": "grievanceHash",
          "type": "string"
        }
      ],
      "name": "GrievanceSubmitted",
      "type": "event"
    },
    {
      "anonymous": false,
      "inputs": [
        {
          "indexed": true,
          "internalType": "address",
          "name": "official",
          "type": "address"
        }
      ],
      "name": "OfficialAdded",
      "type": "event"
    },
    {
      "anonymous": false,
      "inputs": [
        {
          "indexed": true,
          "internalType": "address",
          "name": "official",
          "type": "address"
        }
      ],
      "name": "OfficialRemoved",
      "type": "event"
    },
    {
      "anonymous": false,
      "inputs": [
        {
          "indexed": true,
          "internalType": "address",
          "name": "previousOwner",
          "type": "address"
        },
        {
          "indexed": true,
          "internalType": "address",
          "name": "newOwner",
          "type": "address"
        }
      ],
      "name": "OwnershipTransferred",
      "type": "event"
    },
    {
      "inputs": [
        {
          "internalType": "address",
          "name": "official",
          "type": "address"
        }
      ],
      "name": "addOfficial",
      "outputs": [],
      "stateMutability": "nonpayable",
      "type": "function"
    },
    {
      "inputs": [
        {
          "internalType": "uint256",
          "name": "grievanceId",
          "type": "uint256"
        },
        {
          "internalType": "address",
          "name": "official",
          "type": "address"
        }
      ],
      "name": "assignGrievance",
      "outputs": [],
      "stateMutability": "nonpayable",
      "type": "function"
    },
    {
      "inputs": [
        {
          "internalType": "uint256",
          "name": "grievanceId",
          "type": "uint256"
        }
      ],
      "name": "getGrievance",
      "outputs": [
        {
          "internalType": "uint256",
          "name": "id",
          "type": "uint256"
        },
        {
          "internalType": "address",
          "name": "submitter",
          "type": "address"
        },
        {
          "internalType": "string",
          "name": "grievanceHash",
          "type": "string"
        },
        {
          "internalType": "string",
          "name": "status",
          "type": "string"
        },
        {
          "internalType": "uint256",
          "name": "timestamp",
          "type": "uint256"
        },
        {
          "internalType": "address",
          "name": "assignedTo",
          "type": "address"
        },
        {
          "internalType": "bool",
          "name": "resolved",
          "type": "bool"
        }
      ],
      "stateMutability": "view",
      "type": "function"
    },
    {
      "inputs": [
        {
          "internalType": "uint256",
          "name": "",
          "type": "uint256"
        }
      ],
      "name": "grievances",
      "outputs": [
        {
          "internalType": "uint256",
          "name": "id",
          "type": "uint256"
        },
        {
          "internalType": "address",
          "name": "submitter",
          "type": "address"
        },
        {
          "internalType": "string",
          "name": "grievanceHash",
          "type": "string"
        },
        {
          "internalType": "string",
          "name": "status",
          "type": "string"
        },
        {
          "internalType": "uint256",
          "name": "timestamp",
          "type": "uint256"
        },
        {
          "internalType": "address",
          "name": "assignedTo",
          "type": "address"
        },
        {
          "internalType": "bool",
          "name": "resolved",
          "type": "bool"
        }
      ],
      "stateMutability": "view",
      "type": "function"
    },
    {
      "inputs": [
        {
          "internalType": "address",
          "name": "",
          "type": "address"
        }
      ],
      "name": "officials",
      "outputs": [
        {
          "internalType": "bool",
          "name": "",
          "type": "bool"
        }
      ],
      "stateMutability": "view",
      "type": "function"
    },
    {
      "inputs": [],
      "name": "owner",
      "outputs": [
        {
          "internalType": "address",
          "name": "",
          "type": "address"
        }
      ],
      "stateMutability": "view",
      "type": "function"
    },
    {
      "inputs": [
        {
          "internalType": "address",
          "name": "official",
          "type": "address"
        }
      ],
      "name": "removeOfficial",
      "outputs": [],
      "stateMutability": "nonpayable",
      "type": "function"
    },
    {
      "inputs": [],
      "name": "renounceOwnership",
      "outputs": [],
      "stateMutability": "nonpayable",
      "type": "function"
    },
    {
      "inputs": [
        {
          "internalType": "uint256",
          "name": "grievanceId",
          "type": "uint256"
        }
      ],
      "name": "resolveGrievance",
      "outputs": [],
      "stateMutability": "nonpayable",
      "type": "function"
    },
    {
      "inputs": [
        {
          "internalType": "string",
          "name": "grievanceHash",
          "type": "string"
        }
      ],
      "name": "submitGrievance",
      "outputs": [
        {
          "internalType": "uint256",
          "name": "",
          "type": "uint256"
        }
      ],
      "stateMutability": "nonpayable",
      "type": "function"
    },
    {
      "inputs": [
        {
          "internalType": "address",
          "name": "newOwner",
          "type": "address"
        }
      ],
      "name": "transferOwnership",
      "outputs": [],
      "stateMutability": "nonpayable",
      "type": "function"
    },
    {
      "inputs": [
        {
          "internalType": "uint256",
          "name": "grievanceId",
          "type": "uint256"
        },
        {
          "internalType": "string",
          "name": "newStatus",
          "type": "string"
        }
      ],
      "name": "updateGrievanceStatus",
      "outputs": [],
      "stateMutability": "nonpayable",
      "type": "function"
    }
  ],
  "bytecode": "0x608060405234801561001057600080fd5b5061001a3361005f565b33600081815260036020526040808220805460ff19166001179055517fcd902338c077954bb88183435a933f4d31a1251a6bc80aa0b0e6027111d6e8e89190a26100af565b600080546001600160a01b038381166001600160a01b0319831681178455604051919092169283917f8be0079c531659141344cd1fd0a4f28419497f9722a3daafe3b4186f6b6457e09190a35050565b610fbc806100be6000396000f3fe608060405234801561001057600080fd5b50600436106100b45760003560e01c80638da5cb5b116100715780638da5cb5b1461014c5780639537088314610167578063ac840db01461017a578063be4d78531461018d578063d93321ef146101a0578063f2fde38b146101d357600080fd5b806316f41e56146100b9578063356f1d75146100ce5780633bf5dbf9146100fd5780634112878e146101105780634fea495414610131578063715018a614610144575b600080fd5b6100cc6100c7366004610c11565b6101e6565b005b6100e16100dc366004610c58565b6102a3565b6040516100f49796959493929190610cb7565b60405180910390f35b6100cc61010b366004610c58565b610408565b61012361011e366004610d15565b610555565b6040519081526020016100f4565b6100cc61013f366004610d6e565b6106a8565b6100cc6106f9565b6000546040516001600160a01b0390911681526020016100f4565b6100e1610175366004610c58565b61070d565b6100cc610188366004610d6e565b610902565b6100cc61019b366004610d90565b610956565b6101c36101ae366004610d6e565b60036020526000908152604090205460ff1681565b60405190151581526020016100f4565b6100cc6101e1366004610d6e565b610a4b565b3360009081526003602052604090205460ff1661021e5760405162461bcd60e51b815260040161021590610dbc565b60405180910390fd5b600082815260026020526040812054900361024b5760405162461bcd60e51b815260040161021590610df3565b60008281526002602052604090206003016102668282610eb3565b50817f2dc69d20b70358ac104d4cfe9ea549291305f3375447dc19a9913cbf2482ec11826040516102979190610f73565b60405180910390a25050565b600260208190526000918252604090912080546001820154928201805491936001600160a01b031692916102d690610e2a565b80601f016020809104026020016040519081016040528092919081815260200182805461030290610e2a565b801561034f5780601f106103245761010080835404028352916020019161034f565b820191906000526020600020905b81548152906001019060200180831161033257829003601f168201915b50505050509080600301805461036490610e2a565b80601f016020809104026020016040519081016040528092919081815260200182805461039090610e2a565b80156103dd5780601f106103b2576101008083540402835291602001916103dd565b820191906000526020600020905b8154815290600101906020018083116103c057829003601f168201915b5050505060048301546005909301549192916001600160a01b0381169150600160a01b900460ff1687565b3360009081526003602052604090205460ff166104375760405162461bcd60e51b815260040161021590610dbc565b60008181526002602052604081205490036104645760405162461bcd60e51b815260040161021590610df3565b600081815260026020526040902060050154600160a01b900460ff16156104cd5760405162461bcd60e51b815260206004820152601a60248201527f4772696576616e636520616c7265616479207265736f6c7665640000000000006044820152606401610215565b600081815260026020818152604080842060058101805460ff60a01b1916600160a01b1790558151808301909252600882526714995cdbdb1d995960c21b82840152938590529190526003909101906105269082610eb3565b5060405181907f3363ff791d77b0fce5cfc1bbb1937bb93b03638ec82df9ecc513604dc8eae33e90600090a250565b6000610565600180546001019055565b600061057060015490565b6040805160e08101825282815233602080830191825282840188815284518086018652600781526650656e64696e6760c81b818401526060850152426080850152600060a0850181905260c08501819052868152600292839052949094208351815591516001830180546001600160a01b0319166001600160a01b0390921691909117905592519394509092909182019061060b9082610eb3565b50606082015160038201906106209082610eb3565b506080820151600482015560a08201516005909101805460c0909301511515600160a01b026001600160a81b03199093166001600160a01b0390921691909117919091179055604051339082907fb5f25d03e5c81a3cda7eae639252ee359aab2b94aff402ba99936ac5c066c7c19061069a908790610f73565b60405180910390a392915050565b6106b0610ac4565b6001600160a01b038116600081815260036020526040808220805460ff19169055517f6870c940cab428231ba488bb666ecfb340724efd013cd7d4eaa6b26aa97f28089190a250565b610701610ac4565b61070b6000610b1e565b565b6000818152600260208181526040808420815160e0810183528154815260018201546001600160a01b03169381019390935292830180548594606094859487948594859485949390929084019161076390610e2a565b80601f016020809104026020016040519081016040528092919081815260200182805461078f90610e2a565b80156107dc5780601f106107b1576101008083540402835291602001916107dc565b820191906000526020600020905b8154815290600101906020018083116107bf57829003601f168201915b505050505081526020016003820180546107f590610e2a565b80601f016020809104026020016040519081016040528092919081815260200182805461082190610e2a565b801561086e5780601f106108435761010080835404028352916020019161086e565b820191906000526020600020905b81548152906001019060200180831161085157829003601f168201915b5050509183525050600482015460208201526005909101546001600160a01b0381166040830152600160a01b900460ff16151560609091015280519091506000036108cb5760405162461bcd60e51b815260040161021590610df3565b8051602082015160408301516060840151608085015160a086015160c090960151949e939d50919b50995097509195509350915050565b61090a610ac4565b6001600160a01b038116600081815260036020526040808220805460ff19166001179055517fcd902338c077954bb88183435a933f4d31a1251a6bc80aa0b0e6027111d6e8e89190a250565b3360009081526003602052604090205460ff166109855760405162461bcd60e51b815260040161021590610dbc565b60008281526002602052604081205490036109b25760405162461bcd60e51b815260040161021590610df3565b6001600160a01b03811660009081526003602052604090205460ff16610a1a5760405162461bcd60e51b815260206004820152601860248201527f496e76616c6964206f6666696369616c206164647265737300000000000000006044820152606401610215565b60009182526002602052604090912060050180546001600160a01b0319166001600160a01b03909216919091179055565b610a53610ac4565b6001600160a01b038116610ab85760405162461bcd60e51b815260206004820152602660248201527f4f776e61626c653a206e6577206f776e657220697320746865207a65726f206160448201526564647265737360d01b6064820152608401610215565b610ac181610b1e565b50565b6000546001600160a01b0316331461070b5760405162461bcd60e51b815260206004820181905260248201527f4f776e61626c653a2063616c6c6572206973206e6f7420746865206f776e65726044820152606401610215565b600080546001600160a01b038381166001600160a01b0319831681178455604051919092169283917f8be0079c531659141344cd1fd0a4f28419497f9722a3daafe3b4186f6b6457e09190a35050565b634e487b7160e01b600052604160045260246000fd5b600082601f830112610b9557600080fd5b813567ffffffffffffffff80821115610bb057610bb0610b6e565b604051601f8301601f19908116603f01168101908282118183101715610bd857610bd8610b6e565b81604052838152866020858801011115610bf157600080fd5b836020870160208301376000602085830101528094505050505092915050565b60008060408385031215610c2457600080fd5b82359150602083013567ffffffffffffffff811115610c4257600080fd5b610c4e85828601610b84565b9150509250929050565b600060208284031215610c6a57600080fd5b5035919050565b6000815180845260005b81811015610c9757602081850181015186830182015201610c7b565b506000602082860101526020601f19601f83011685010191505092915050565b878152600060018060a01b03808916602084015260e06040840152610cdf60e0840189610c71565b8381036060850152610cf18189610c71565b6080850197909752509390931660a082015290151560c09091015250949350505050565b600060208284031215610d2757600080fd5b813567ffffffffffffffff811115610d3e57600080fd5b610d4a84828501610b84565b949350505050565b80356001600160a01b0381168114610d6957600080fd5b919050565b600060208284031215610d8057600080fd5b610d8982610d52565b9392505050565b60008060408385031215610da357600080fd5b82359150610db360208401610d52565b90509250929050565b6020808252601d908201527f4e6f7420617574686f72697a656420617320616e206f6666696369616c000000604082015260600190565b60208082526018908201527f4772696576616e636520646f6573206e6f742065786973740000000000000000604082015260600190565b600181811c90821680610e3e57607f821691505b602082108103610e5e57634e487b7160e01b600052602260045260246000fd5b50919050565b601f821115610eae57600081815260208120601f850160051c81016020861015610e8b5750805b601f850160051c820191505b81811015610eaa57828155600101610e97565b5050505b505050565b815167ffffffffffffffff811115610ecd57610ecd610b6e565b610ee181610edb8454610e2a565b84610e64565b602080601f831160018114610f165760008415610efe5750858301515b600019600386901b1c1916600185901b178555610eaa565b600085815260208120601f198616915b82811015610f4557888601518255948401946001909101908401610f26565b5085821015610f635787850151600019600388901b60f8161c191681555b5050505050600190811b01905550565b602081526000610d896020830184610c7156fea264697066735822122073233fa4694292fb239d1756d5bc7c4f50b87daf3d21b56f95b57f1104186aab64736f6c63430008130033",
  "linkReferences": {},
  "deployedLinkReferences": {}
}